:020000040000fa
:080000000002040000000000f2
:020000040000fa
:04000800c80200002a
:020000040000fa
:04000c00c802000026
:020000040000fa
:04001000c802000022
:020000040000fa
:04001400c80200001e
:020000040000fa
:04001800c80200001a
:020000040000fa
:04001c00c802000016
:020000040000fa
:04002000c802000012
:020000040000fa
:04002400c80200000e
:020000040000fa
:04002800c80200000a
:020000040000fa
:04002c00c802000006
:020000040000fa
:04003000c802000002
:020000040000fa
:04003400c8020000fe
:020000040000fa
:04003800c8020000fa
:020000040000fa
:04003c00c8020000f6
:020000040000fa
:04004000c8020000f2
:020000040000fa
:04004400c8020000ee
:020000040000fa
:04004800ea080000c2
:020000040000fa
:04004c00c8020000e6
:020000040000fa
:04005000c8020000e2
:020000040000fa
:04005400c8020000de
:020000040000fa
:04005800c8020000da
:020000040000fa
:04005c00c8020000d6
:020000040000fa
:04006000c8020000d2
:020000040000fa
:04006400c8020000ce
:020000040000fa
:04006800c8020000ca
:020000040000fa
:04006c00c8020000c6
:020000040000fa
:04007000c8020000c2
:020000040000fa
:04007400c8020000be
:020000040000fa
:04007800c8020000ba
:020000040000fa
:04007c00c8020000b6
:020000040000fa
:04008000c8020000b2
:020000040000fa
:04008400c8020000ae
:020000040000fa
:04008800c8020000aa
:020000040000fa
:04008c00c8020000a6
:020000040000fa
:04009000c8020000a2
:020000040000fa
:04009400c80200009e
:020000040000fa
:04009800c80200009a
:020000040000fa
:04009c00c802000096
:020000040000fa
:0400a000c802000092
:020000040000fa
:0400a400c80200008e
:020000040000fa
:0400a800c80200008a
:020000040000fa
:0400ac00c802000086
:020000040000fa
:0400b000c802000082
:020000040000fa
:0400b400c80200007e
:020000040000fa
:0400b800c80200007a
:020000040000fa
:0400bc00c802000076
:020000040000fa
:0400c000c802000072
:020000040000fa
:0400c400c80200006e
:020000040000fa
:0400c800c80200006a
:020000040000fa
:0400cc00c802000066
:020000040000fa
:0400d000c802000062
:020000040000fa
:0400d400c80200005e
:020000040000fa
:0400d800c80200005a
:020000040000fa
:0400dc00c802000056
:020000040000fa
:0400e000c802000052
:020000040000fa
:0400e400c80200004e
:020000040000fa
:0400e800c80200004a
:020000040000fa
:0400ec00c802000046
:020000040000fa
:0400f000c802000042
:020000040000fa
:0400f400c80200003e
:020000040000fa
:0400f800c80200003a
:020000040000fa
:0400fc00c802000036
:020000040000fa
:04010000c802000031
:020000040000fa
:04010400c80200002d
:020000040000fa
:04010800c802000029
:020000040000fa
:04010c00c802000025
:020000040000fa
:04011000c802000021
:020000040000fa
:04011400c80200001d
:020000040000fa
:04011800c802000019
:020000040000fa
:04011c00c802000015
:020000040000fa
:04012000c802000011
:020000040000fa
:04012400c80200000d
:020000040000fa
:04012800c802000009
:020000040000fa
:04012c00c802000005
:020000040000fa
:04013000c802000001
:020000040000fa
:04013400c8020000fd
:020000040000fa
:04013800c8020000f9
:020000040000fa
:04013c00c8020000f5
:020000040000fa
:04014000c8020000f1
:020000040000fa
:04014400c8020000ed
:020000040000fa
:04014800c8020000e9
:020000040000fa
:04020800c802000028
:020000040000fa
:04020c00c802000024
:020000040000fa
:04021000c802000020
:020000040000fa
:04021400c80200001c
:020000040000fa
:04021800c802000018
:020000040000fa
:04021c00c802000014
:020000040000fa
:04022000c802000010
:020000040000fa
:04022400c80200000c
:020000040000fa
:04022800c802000008
:020000040000fa
:04022c00c802000004
:020000040000fa
:04023000c802000000
:020000040000fa
:04023400c8020000fc
:020000040000fa
:04023800c8020000f8
:020000040000fa
:04023c00c8020000f4
:020000040000fa
:04024000c8020000f0
:020000040000fa
:04024400c8020000ec
:020000040000fa
:04024800c8020000e8
:020000040000fa
:04024c00c8020000e4
:020000040000fa
:04025000c8020000e0
:020000040000fa
:04025400c8020000dc
:020000040000fa
:04025800c8020000d8
:020000040000fa
:04025c00c8020000d4
:020000040000fa
:04026000c8020000d0
:020000040000fa
:04026400c8020000cc
:020000040000fa
:04026800c8020000c8
:020000040000fa
:04026c00c8020000c4
:020000040000fa
:04027000c8020000c0
:020000040000fa
:04027400c8020000bc
:020000040000fa
:04027800c8020000b8
:020000040000fa
:04027c00c8020000b4
:020000040000fa
:04028000c8020000b0
:020000040000fa
:04028400c8020000ac
:020000040000fa
:04028800c8020000a8
:020000040000fa
:04028c00c8020000a4
:020000040000fa
:04029000c8020000a0
:020000040000fa
:04029400c80200009c
:020000040000fa
:04029800c802000098
:020000040000fa
:04029c00c802000094
:020000040000fa
:0402a000c802000090
:020000040000fa
:0402a400c80200008c
:020000040000fa
:0402a800c802000088
:020000040000fa
:0402ac00c802000084
:020000040000fa
:0402b000c802000080
:020000040000fa
:0402b400c80200007c
:020000040000fa
:0402b800c802000078
:020000040000fa
:0402bc00c802000074
:020000040000fa
:0402c000c802000070
:020000040000fa
:0402c400c80200006c
:020000040000fa
:0402c800c802000068
:020000040000fa
:0402cc00c802000064
:020000040000fa
:0402d000c802000060
:020000040000fa
:0402d400c80200005c
:020000040000fa
:0402d800c802000058
:020000040000fa
:0402dc00c802000054
:020000040000fa
:0402e000c802000050
:020000040000fa
:0402e400c80200004c
:020000040000fa
:0402e800c802000048
:020000040000fa
:0402ec00c802000044
:020000040000fa
:0402f000c802000040
:020000040000fa
:0402f400c80200003c
:020000040000fa
:0402f800c802000038
:020000040000fa
:0402fc00c802000034
:020000040000fa
:04030000c80200002f
:020000040000fa
:04030400c80200002b
:020000040000fa
:04030800c802000027
:020000040000fa
:04030c00c802000023
:020000040000fa
:04031000c80200001f
:020000040000fa
:04031400c80200001b
:020000040000fa
:04031800c802000017
:020000040000fa
:04031c00c802000013
:020000040000fa
:04032000c80200000f
:020000040000fa
:04032400c80200000b
:020000040000fa
:04032800c802000007
:020000040000fa
:04032c00c802000003
:020000040000fa
:04033000c8020000ff
:020000040000fa
:04033400c8020000fb
:020000040000fa
:04033800c8020000f7
:020000040000fa
:04033c00c8020000f3
:020000040000fa
:04034000c8020000ef
:020000040000fa
:04034400c8020000eb
:020000040000fa
:04034800c8020000e7
:020000040000fa
:10040000af8620000e7f22000e0188000000000051
:10041000000020000000e000020032000001200087
:1004200020028800140007005b0007000000e000c5
:1004300003003a00e0aa200001002000020037007b
:100440000000200001002000810f70000100320038
:1004500014000700000020000000e000020032004d
:100460000000020000000000000a0200000000007e
:100470000040da000000fe004440a900200e2000e9
:100480000000e0000300320000002000a00188000e
:100490004440a800000006008a1f78008b1f7800e7
:1004a0000000060091018800800478000000eb0045
:1004b0001a003700e284440032a0b4009905ba0063
:1004c000e284440032a0b4009906ba00e2844400f9
:1004d00032a0b4000006eb00476fde00fd07b2005b
:1004e000636ce10003003a00ebff07000000eb0043
:1004f0000a003700606ce10004003a00005deb0088
:100500008b05e900fdff3e00040037006168e10053
:10051000010032000086eb000b00070019c7ba008b
:100520001905ba000e04e00003003a000a00e000da
:10053000e0ff3a0000000600fe07b2009e018800be
:100540008a047800f5ff3700395dba008b05e900b1
:100550000c003200295dba008b05e900080032006a
:100560000c00e00003003a00e284440032a0b40032
:10057000f5ff370019ddba008b05e900faff3a00f4
:100580008904e800e184440032a0b40000000600c1
:100590000040da000000fe000000050003f0a200a9
:1005a000889fbe008a9fbe008c1f7800f90007005c
:1005b000000133006450e1004f0032006420e1008c
:1005c0005200320003826c0007003b000905d00096
:1005d0000306d000820f54000c065d0002003900b3
:1005e00002003200890178000306780085825500f8
:1005f00004003d000003fd008103fd008502ea00c8
:100600008b854200840f720002003b0060001000e6
:10061000e08018006011b8000005eb007a28e100c6
:100620000a00390006007800c75ddd00f707b20058
:10063000878075002d003700828171000a017800e3
:10064000610560008180d1000080d3008502e9004f
:10065000f9ff3b00060440008784480002003b008d
:1006600060041400e0841c000988a3000700320025
:100670008a81710082817100610164008904d10066
:100680000884d3008b05e800170037000978a30021
:1006900013003a000b00e000130034008b05e90062
:1006a0000804440089844c000a4474000978a300bb
:1006b0000d003a000b00e000070034008b05e90054
:1006c0000804440089844c0001003a000b0020001b
:1006d0000978a300f7ff32000001eb0002003700a9
:1006e000828171000a0178006f0007000cf0a700fa
:1006f00001f0a000b80037006420e10002003a00d9
:10070000838f6c00b80033000801be000200be00f9
:10071000b1003700889fbe008a9fbe008c1f780002
:100720009c000700a300330003866c006450e100c6
:100730002e0032006420e100330032006150e100fd
:100740002f0032006120e100310032008585550024
:10075000eb07b00009002000080420000500370066
:100760000804440089844c000a0031000603430059
:1007700087834b000001530081815b00f8ff330049
:100780000203be000800a0000804440089844c0055
:10079000f6ff3900c639dd00830173000100320025
:1007a000130020008904d1000884d3000998a30015
:1007b000050032000800a7000300a0008904d10052
:1007c0000884d3008b05e8008904d1000884d30095
:1007d0000001eb000281d2003300070001f0a1000c
:1007e0000cf0a70001f0a0007b0037006420e100be
:1007f0007d0032000801be000200be00f7ff370096
:100800006120e100780032006000b800f3ff37009b
:100810000000200001f82700f0ff37000001be00b3
:10082000470007000470a70003f0a1006509b100ac
:10083000160032000d0035006828e1000600350082
:10084000f0ff2f00f1ff27000300e00013003b0042
:1008500001002800000005000000400081804800e1
:100860008502e900fcff3a0008003700f88f4200db
:1008700002003c008000eb00000005008100d10078
:100880000080d3008502e800fcff3a000300e0008e
:1008900002003b0060001000e0801800000006002d
:1008a000040020008700370081002000618055008f
:1008b0000b003d000b00200061fe2f000100e10055
:1008c0001d00340082817100610164008904d1003f
:1008d0000884d3000000e800faff3a00710020000d
:1008e0006100640003007000020060000900320033
:1008f00061044400e0844c000988a5000500320032
:100900008b05e8006808e10002003a008904d10084
:100910000884d300f20f20000258e10005003d00da
:10092000c75ddd00f907b200898075000800780016
:10093000000006000bf827008b007800000005007f
:10094000c70ade00f107b200f50fb200080032005e
:10095000e1cf4200020032000170a0002400050037
:10096000810f7000010032000408050044000500fa
:10097000810f700002003a00140005008502e900b2
:100980000000400081c04800fcff3b000170a00057
:10099000240005000004be00e9ff07000003be00bc
:1009a0000405be000200be00e5ff0700844f75008d
:1009b000000006000200be006450e10005003600a1
:1009c0006420e100020036000968a30001003a003b
:1009d0000800be000160a0004f0678004f05be0071
:1009e0004f04be0000000600f0ff2f00f1ff2700bb
:1009f000f9ff3700889fbe008a9fbe008c1f7800d9
:100a0000e4ff0700ebff330003866c006450e10055
:100a1000240032006420e100270032006150e10030
:100a2000220032006120e100210032008b8542006b
:100a3000eb07b1000134b800003ab80008044200e6
:100a400089844a00013ab8000030b800888040002c
:100a500009014a0004003300000040008180480082
:100a6000020149008b05e900c909dd00830170001e
:100a70000100320013002000c814de004814dd001d
:100a80004709de001200b200c808de0008847000ca
:100a900085ff070001f0a1000cf0a70001f0a00005
:100aa000cdff37006120e100cfff32000801be001a
:100ab0000200be00f7ff37006150e100fcff3a0082
:100ac000c9ff3700889fbe008a9fbe00841f780040
:100ad000b0ff07004f00780011003300f0ff2f0037
:100ae000838f6c0006003b00040565000a00a70028
:100af0000800370009f0a6001000200008003700a9
:100b0000820f5400838f5c00030039001000200026
:100b100001003e000000200009f0a7000000ea00ec
:100b20004f05be004f04be000000e00000000600bc
:020000040000fa
:100b30004142000043440000454600004748000091
:100b4000494a00004b4c00004d4e00004f50000041
:100b500051520000535400005556000057580000f1
:100b6000595a00006162000063640000656600007d
:100b700067680000696a00006b6c00006d6e000021
:100b80006f700000717200007374000075760000d1
:100b900077780000797a00003031000032330000ad
:100ba000343500003637000038390000202c0000b2
:100bb000000000004100000042000000430000006f
:100bc000440000004500000046000000470000000f
:100bd00048000000490000004a0000004b000000ef
:100be0004c0000004d0000004e0000004f000000cf
:100bf00050000000510000005200000053000000af
:100c0000540000005500000056000000570000008e
:100c100058000000590000005a0000006100000068
:100c20006200000063000000640000006500000036
:100c30006600000067000000680000006900000016
:100c40006a0000006b0000006c0000006d000000f6
:100c50006e0000006f0000007000000071000000d6
:100c600072000000730000007400000075000000b6
:100c70007600000077000000780000007900000096
:100c80007a00000030000000310000003200000057
:100c90003300000034000000350000003600000082
:100ca000370000003800000039000000020000009a
:100cb0002c000000546900006d65000073200000e6
:100cc00052650000616c0000205300007065000058
:100cd0006564000000380000362c00003030000051
:100ce00030000000312c00003131000031000000e4
:040cf00031000000cf
:020000040000fa
:100cf4000000fa00cc62a800800c20000100200053
:100d040054020700cc62a9000080fa00000006002b
:100d14000200fa0010c0b300004f780041168000b2
:100d240000002f000100700040168800cc02a900ca
:100d3400cc22a800cc62a900cc62a80080022000ca
:100d44000100200043020700501680004f00de001f
:100d540000407800004f7800cc62a900e4ff07004f
:100d64001e4078000004e000f2ff3a0041168000c3
:100d7400f0ff20000080600040168800cc22a9000b
:100d84000080fa00000006000200fa00004f78001c
:100d940061168000f0ff200000806000601688006b
:100da4001e80fb004c00dd0080007800601680008f
:100db4000100700060168800800c200001002000f3
:100dc40024020700caff07000080fa0000000600a2
:100dd4000000fa0010c0b3003f00070000f4210037
:100de400010020001b0207000080fa00000006003a
:100df4000000fa0020c0b3003700070000f421000f
:100e040001002000130207000080fa000000060021
:100e14000800fa0020079800310798000000eb0052
:100e2400000f780000042000100798003e00900096
:100e3400000040006e007800804078002e00900092
:100e44000040780000c040008040780000c8b30033
:100e540000c07000200007000080fa0000000600b7
:100e64000400fa00004f7800110798001e0090005b
:100e740000407800614060000080fb006100600079
:100e8400611680000100a100010070006016880056
:100e9400c822a900cc22a9001e80fb004400de0069
:100ea40000407800b8ff07001e407800b6ff070036
:100eb4000080fa00000006000200fa00004f7800eb
:100ec400110020001e407800e5ff070090ff070096
:100ed4000080fa00000006000200fa00004f7800cb
:100ee4008000eb001e407800ddff070088ff07004c
:100ef4000080fa00000006000000fa00c822a900e1
:100f0400c802a900c862a900cc22a900cc02a90089
:100f1400cc62a90000d4200031002000cd010700dc
:100f240041168000f0ff2000008060004016880019
:100f340061168000f0ff20000080600060168800c9
:100f440030c0b30090ff070000e22400010020003d
:100f5400c001070080c0b3008bff070000e224003b
:100f640001002000bb01070020c0b30086ff07007a
:100f740000e2240001002000b601070020c0b300f5
:100f840081ff070000e2240001002000b1010700f6
:100f940080c0b3007cff070000e2240001002000b1
:100fa400ac01070080c0b300cbff070000e22400bf
:100fb40001002000a701070010c0b300c6ff07000e
:100fc40000e2240001002000a201070060c0b30079
:100fd400c1ff070000e22400010020009d0107007a
:100fe40020c0b300bcff070000e224000100200081
:100ff40098010700c0c0b300b7ff070000e2240057
:1010040001002000930107000080fa0000000600a0
:101014008800fa003087980080592800200798003b
:10102400e6004700a25d28003f000900b2187800de
:101034000000eb00000f7800170037000000eb0001
:1010440010079800030037001e0090000000e8001d
:10105400100798001e007800be80900000804000b9
:10106400904078001e0090002e0190000000410086
:101074001040780080cf5000f3ff3a001e0090002b
:10108400000040000000470030009000004078005d
:1010940089ff07001e0fe8001e007800be80900044
:1010a40000804000104078000004e000e3ff3a00b4
:1010b4000080fa00000006000400fa00008fbe0061
:1010c40002002000433b24001e00be0048fe07002f
:1010d40002002000032724008dfd07000002be004b
:1010e40000408000114080000001be000400be00ea
:1010f40087fd07000001be0000002000a147240076
:1011040083fd07000200200003f0230023fd0700f5
:10111400c1fd0700000078000080fa00000006000e
:101124000000fa000e28ef001028ef0030332300ef
:1011340031eb2300004088001140880000002000ab
:1011440001272400dcff070060408800f0f920003c
:10115400700888001221ef008500a9009500a800fe
:1011640013e1a8000a21ef000080fa000000060045
:101174000400fa00008fbe001e01be002240880059
:101184003340880044408000554080002040800067
:10119400314080000001be000400be00bffd070016
:1011a4000000e000080032001e00be00c2ff07007d
:1011b400604088000e28ef0020408000314080000d
:1011c40040408800514088000080fa00000006007a
:1011d400809fbe000000fa00704080000000e8001c
:1011e400704088007140800060408000808f500013
:1011f40049003a000e28ef00804080000000e8001b
:101204008040880080408000e80f500002003a00cf
:101214001028ef0005003700804080000000e00047
:1012240002003a0070002000804088008040800066
:10123400c300dd00808120000080400010007800a1
:1012440000407800614060000080fb0061006000a5
:101254004400dd00611680000140a100010070001f
:1012640060168800804080004300dd008080e80034
:101274008081200000804000100078000040780049
:10128400614060000080fb00610060004400dd00fc
:10129400211680000140a100010070002016880082
:1012a400804080004300dd00e40040008081200095
:1012b4000080400010007800004078006140600029
:1012c4000080fb00610060004800dd0061168000c2
:1012d4000180a10001007000601688008040800039
:1012e4004300dd00e60040008081200000804000d3
:1012f4001000780000407800614060000080fb002e
:10130400610060004700dd00611680000170a100eb
:1013140001007000601688008500a9000080fa00b2
:101324004f00be00004006000000fa00c022ef009b
:10133400c822ef00c842a800f0fe2f006019880000
:101344003136800000fe2f00008060002001b300d1
:1013540030368800a900070071ff0700e6fe070089
:101364000000eb00510007000080fa0000000600b6
:101374000200fa00000f780095fe07008000eb00e1
:1013840050002000a2fe07001e00780020ff070086
:10139400110020000000eb009dfe0700a06528005e
:1013a4001bff07000080fa00000006000800fa0096
:1013b400008fbe002207980033079800ae0090000b
:1013c400b1408800a1408000b0408000808f500070
:1013d400080032003e009000e5ff07002e00900058
:1013e400320007001e00be0061ff0700b04080000d
:1013f400a04088000080fa00000006000000fa0007
:10140400c9ff0700cd62a800cd42a800cd22a800e4
:101414001428ef001628ef0084000700904088008d
:1014240091408000a0292000808f500009003400e2
:10143400cd62a800cd42a900cd22a900b366280040
:101444000001eb000000200001272400d7ff070063
:10145400f1ff370091408000d0142000808f5000ad
:1014640009003400cd62a900cd42a800cd22a90014
:10147400236728001200200000002000011a240025
:10148400caff0700e4ff3700cd62a900cd42a900de
:10149400cd22a8008367280022002000000020003d
:1014a40001f82300c1ff0700dbff37000200fa0048
:1014b400000f7800210c800080ff2f000080600066
:1014c400200c88001e0078006600b90080007800b7
:1014d400808520000080400010007800100c8800f7
:1014e4001e0078006600b900800078008085200026
:1014f4000080400010007800000c880085a1a9003d
:101504008481a9008461a900210c800080ff2f0040
:10151400008060006000b300200c88001e0078008a
:101524006600b900000078008080e8008085200013
:101534000080400010007800600888001021ef004f
:1015440084e0a90094e0a90011e1a8000621ef00bd
:081554000080fa00000006000f
:020000040000fa
:10155c00120800000600000000000000180800003f
:10156c00400000000200000001000100000000002b
:10157c00000000000001000000000000000000005e
:10158c00010001000000000000000000000100004c
:10159c00000000000000000001000100000000003d
:1015ac00000000000001000001000000000000002d
:1015bc00010001000000000000000000000000001d
:1015cc000008000012000000000000005808000095
:1015dc001200000002000000e880ff00ff00000085
:1015ec00803eff007f000000fd07ff000f000000a1
:0415fc0000000000eb
:020000040000fa
:101600000000fa00000e2000001988002223ef00dd
:1016100020f02100201988003023ef004000200036
:101620004019880021e3a8000080fa0000000600ad
:101630000000fa002023a80000000000001980002c
:10164000610060000000e000fcff32000018800034
:081650000080fa000000060012
:020000040000fa
:10165800f03fb1000180b10006003500ee0309003b
:1016680000000000403fb1000180b100fbff3d00d9
:101678001000b000203fb0000200350000800900d3
:08168800000000000000060054
:020000040000fa
:020000040001f9
:0457f8009a680000ab
:020000040000fa
:020000040001f9
:0457fc003f3f00002b
:00000001FF
