:020000040000fa
:080000000002040000000000f2
:020000040000fa
:04000800c80200002a
:020000040000fa
:04000c00c802000026
:020000040000fa
:04001000c802000022
:020000040000fa
:04001400c80200001e
:020000040000fa
:04001800c80200001a
:020000040000fa
:04001c00c802000016
:020000040000fa
:04002000c802000012
:020000040000fa
:04002400c80200000e
:020000040000fa
:04002800c80200000a
:020000040000fa
:04002c00c802000006
:020000040000fa
:04003000c802000002
:020000040000fa
:04003400c8020000fe
:020000040000fa
:04003800c8020000fa
:020000040000fa
:04003c00c8020000f6
:020000040000fa
:04004000c8020000f2
:020000040000fa
:04004400c8020000ee
:020000040000fa
:04004800340600007a
:020000040000fa
:04004c00c8020000e6
:020000040000fa
:04005000c8020000e2
:020000040000fa
:04005400c8020000de
:020000040000fa
:04005800c8020000da
:020000040000fa
:04005c00c8020000d6
:020000040000fa
:04006000c8020000d2
:020000040000fa
:04006400c8020000ce
:020000040000fa
:04006800c8020000ca
:020000040000fa
:04006c00c8020000c6
:020000040000fa
:04007000c8020000c2
:020000040000fa
:04007400c8020000be
:020000040000fa
:04007800c8020000ba
:020000040000fa
:04007c00c8020000b6
:020000040000fa
:04008000c8020000b2
:020000040000fa
:04008400c8020000ae
:020000040000fa
:04008800c8020000aa
:020000040000fa
:04008c00c8020000a6
:020000040000fa
:04009000c8020000a2
:020000040000fa
:04009400c80200009e
:020000040000fa
:04009800c80200009a
:020000040000fa
:04009c00c802000096
:020000040000fa
:0400a000c802000092
:020000040000fa
:0400a400c80200008e
:020000040000fa
:0400a800c80200008a
:020000040000fa
:0400ac00c802000086
:020000040000fa
:0400b000c802000082
:020000040000fa
:0400b400c80200007e
:020000040000fa
:0400b800c80200007a
:020000040000fa
:0400bc00c802000076
:020000040000fa
:0400c000c802000072
:020000040000fa
:0400c400c80200006e
:020000040000fa
:0400c800c80200006a
:020000040000fa
:0400cc00c802000066
:020000040000fa
:0400d000c802000062
:020000040000fa
:0400d400c80200005e
:020000040000fa
:0400d800c80200005a
:020000040000fa
:0400dc00c802000056
:020000040000fa
:0400e000c802000052
:020000040000fa
:0400e400c80200004e
:020000040000fa
:0400e800c80200004a
:020000040000fa
:0400ec00c802000046
:020000040000fa
:0400f000c802000042
:020000040000fa
:0400f400c80200003e
:020000040000fa
:0400f800c80200003a
:020000040000fa
:0400fc00c802000036
:020000040000fa
:04010000c802000031
:020000040000fa
:04010400c80200002d
:020000040000fa
:04010800c802000029
:020000040000fa
:04010c00c802000025
:020000040000fa
:04011000c802000021
:020000040000fa
:04011400c80200001d
:020000040000fa
:04011800c802000019
:020000040000fa
:04011c00c802000015
:020000040000fa
:04012000c802000011
:020000040000fa
:04012400c80200000d
:020000040000fa
:04012800c802000009
:020000040000fa
:04012c00c802000005
:020000040000fa
:04013000c802000001
:020000040000fa
:04013400c8020000fd
:020000040000fa
:04013800c8020000f9
:020000040000fa
:04013c00c8020000f5
:020000040000fa
:04014000c8020000f1
:020000040000fa
:04014400c8020000ed
:020000040000fa
:04014800c8020000e9
:020000040000fa
:04020800c802000028
:020000040000fa
:04020c00c802000024
:020000040000fa
:04021000c802000020
:020000040000fa
:04021400c80200001c
:020000040000fa
:04021800c802000018
:020000040000fa
:04021c00c802000014
:020000040000fa
:04022000c802000010
:020000040000fa
:04022400c80200000c
:020000040000fa
:04022800c802000008
:020000040000fa
:04022c00c802000004
:020000040000fa
:04023000c802000000
:020000040000fa
:04023400c8020000fc
:020000040000fa
:04023800c8020000f8
:020000040000fa
:04023c00c8020000f4
:020000040000fa
:04024000c8020000f0
:020000040000fa
:04024400c8020000ec
:020000040000fa
:04024800c8020000e8
:020000040000fa
:04024c00c8020000e4
:020000040000fa
:04025000c8020000e0
:020000040000fa
:04025400c8020000dc
:020000040000fa
:04025800c8020000d8
:020000040000fa
:04025c00c8020000d4
:020000040000fa
:04026000c8020000d0
:020000040000fa
:04026400c8020000cc
:020000040000fa
:04026800c8020000c8
:020000040000fa
:04026c00c8020000c4
:020000040000fa
:04027000c8020000c0
:020000040000fa
:04027400c8020000bc
:020000040000fa
:04027800c8020000b8
:020000040000fa
:04027c00c8020000b4
:020000040000fa
:04028000c8020000b0
:020000040000fa
:04028400c8020000ac
:020000040000fa
:04028800c8020000a8
:020000040000fa
:04028c00c8020000a4
:020000040000fa
:04029000c8020000a0
:020000040000fa
:04029400c80200009c
:020000040000fa
:04029800c802000098
:020000040000fa
:04029c00c802000094
:020000040000fa
:0402a000c802000090
:020000040000fa
:0402a400c80200008c
:020000040000fa
:0402a800c802000088
:020000040000fa
:0402ac00c802000084
:020000040000fa
:0402b000c802000080
:020000040000fa
:0402b400c80200007c
:020000040000fa
:0402b800c802000078
:020000040000fa
:0402bc00c802000074
:020000040000fa
:0402c000c802000070
:020000040000fa
:0402c400c80200006c
:020000040000fa
:0402c800c802000068
:020000040000fa
:0402cc00c802000064
:020000040000fa
:0402d000c802000060
:020000040000fa
:0402d400c80200005c
:020000040000fa
:0402d800c802000058
:020000040000fa
:0402dc00c802000054
:020000040000fa
:0402e000c802000050
:020000040000fa
:0402e400c80200004c
:020000040000fa
:0402e800c802000048
:020000040000fa
:0402ec00c802000044
:020000040000fa
:0402f000c802000040
:020000040000fa
:0402f400c80200003c
:020000040000fa
:0402f800c802000038
:020000040000fa
:0402fc00c802000034
:020000040000fa
:04030000c80200002f
:020000040000fa
:04030400c80200002b
:020000040000fa
:04030800c802000027
:020000040000fa
:04030c00c802000023
:020000040000fa
:04031000c80200001f
:020000040000fa
:04031400c80200001b
:020000040000fa
:04031800c802000017
:020000040000fa
:04031c00c802000013
:020000040000fa
:04032000c80200000f
:020000040000fa
:04032400c80200000b
:020000040000fa
:04032800c802000007
:020000040000fa
:04032c00c802000003
:020000040000fa
:04033000c8020000ff
:020000040000fa
:04033400c8020000fb
:020000040000fa
:04033800c8020000f7
:020000040000fa
:04033c00c8020000f3
:020000040000fa
:04034000c8020000ef
:020000040000fa
:04034400c8020000eb
:020000040000fa
:04034800c8020000e7
:020000040000fa
:100400004f8620000e7f22000e01880000000000b1
:10041000000020000000e000020032000001200087
:1004200020028800140007005b0007000000e000c5
:1004300003003a00607e2000010020000200370027
:100440000000200001002000810f70000100320038
:1004500014000700000020000000e000020032004d
:10046000000002000000000052070200000000002f
:100470000040da000000fe004440a9000000200017
:100480000000e0000300320000002000a00188000e
:100490004440a800000006008a1f78008b1f7800e7
:1004a0000000060091018800800478000000eb0045
:1004b0001a003700e284440032a0b4009905ba0063
:1004c000e284440032a0b4009906ba00e2844400f9
:1004d00032a0b4000006eb00476fde00fd07b2005b
:1004e000636ce10003003a00ebff07000000eb0043
:1004f0000a003700606ce10004003a00005deb0088
:100500008b05e900fdff3e00040037006168e10053
:10051000010032000086eb000b00070019c7ba008b
:100520001905ba000e04e00003003a000a00e000da
:10053000e0ff3a0000000600fe07b2009e018800be
:100540008a047800f5ff3700395dba008b05e900b1
:100550000c003200295dba008b05e900080032006a
:100560000c00e00003003a00e284440032a0b40032
:10057000f5ff370019ddba008b05e900faff3a00f4
:100580008904e800e184440032a0b40000000600c1
:100590000040da000000fe000000050003f0a200a9
:1005a000889fbe008a9fbe008c1f7800f90007005c
:1005b000000133006450e1004f0032006420e1008c
:1005c0005200320003826c0007003b000905d00096
:1005d0000306d000820f54000c065d0002003900b3
:1005e00002003200890178000306780085825500f8
:1005f00004003d000003fd008103fd008502ea00c8
:100600008b854200840f720002003b0060001000e6
:10061000e08018006011b8000005eb007a28e100c6
:100620000a00390006007800c75ddd00f707b20058
:10063000878075002d003700828171000a017800e3
:10064000610560008180d1000080d3008502e9004f
:10065000f9ff3b00060440008784480002003b008d
:1006600060041400e0841c000988a3000700320025
:100670008a81710082817100610164008904d10066
:100680000884d3008b05e800170037000978a30021
:1006900013003a000b00e000130034008b05e90062
:1006a0000804440089844c000a4474000978a300bb
:1006b0000d003a000b00e000070034008b05e90054
:1006c0000804440089844c0001003a000b0020001b
:1006d0000978a300f7ff32000001eb0002003700a9
:1006e000828171000a0178006f0007000cf0a700fa
:1006f00001f0a000b80037006420e10002003a00d9
:10070000838f6c00b80033000801be000200be00f9
:10071000b1003700889fbe008a9fbe008c1f780002
:100720009c000700a300330003866c006450e100c6
:100730002e0032006420e100330032006150e100fd
:100740002f0032006120e100310032008585550024
:10075000eb07b00009002000080420000500370066
:100760000804440089844c000a0031000603430059
:1007700087834b000001530081815b00f8ff330049
:100780000203be000800a0000804440089844c0055
:10079000f6ff3900c639dd00830173000100320025
:1007a000130020008904d1000884d3000998a30015
:1007b000050032000800a7000300a0008904d10052
:1007c0000884d3008b05e8008904d1000884d30095
:1007d0000001eb000281d2003300070001f0a1000c
:1007e0000cf0a70001f0a0007b0037006420e100be
:1007f0007d0032000801be000200be00f7ff370096
:100800006120e100780032006000b800f3ff37009b
:100810000000200001f82700f0ff37000001be00b3
:10082000470007000470a70003f0a1006509b100ac
:10083000160032000d0035006828e1000600350082
:10084000f0ff2f00f1ff27000300e00013003b0042
:1008500001002800000005000000400081804800e1
:100860008502e900fcff3a0008003700f88f4200db
:1008700002003c008000eb00000005008100d10078
:100880000080d3008502e800fcff3a000300e0008e
:1008900002003b0060001000e0801800000006002d
:1008a000040020008700370081002000618055008f
:1008b0000b003d000b00200061fe2f000100e10055
:1008c0001d00340082817100610164008904d1003f
:1008d0000884d3000000e800faff3a00710020000d
:1008e0006100640003007000020060000900320033
:1008f00061044400e0844c000988a5000500320032
:100900008b05e8006808e10002003a008904d10084
:100910000884d300f20f20000258e10005003d00da
:10092000c75ddd00f907b200898075000800780016
:10093000000006000bf827008b007800000005007f
:10094000c70ade00f107b200f50fb200080032005e
:10095000e1cf4200020032000170a0002400050037
:10096000810f7000010032000408050044000500fa
:10097000810f700002003a00140005008502e900b2
:100980000000400081c04800fcff3b000170a00057
:10099000240005000004be00e9ff07000003be00bc
:1009a0000405be000200be00e5ff0700844f75008d
:1009b000000006000200be006450e10005003600a1
:1009c0006420e100020036000968a30001003a003b
:1009d0000800be000160a0004f0678004f05be0071
:1009e0004f04be0000000600f0ff2f00f1ff2700bb
:1009f000f9ff3700889fbe008a9fbe008c1f7800d9
:100a0000e4ff0700ebff330003866c006450e10055
:100a1000240032006420e100270032006150e10030
:100a2000220032006120e100210032008b8542006b
:100a3000eb07b1000134b800003ab80008044200e6
:100a400089844a00013ab8000030b800888040002c
:100a500009014a0004003300000040008180480082
:100a6000020149008b05e900c909dd00830170001e
:100a70000100320013002000c814de004814dd001d
:100a80004709de001200b200c808de0008847000ca
:100a900085ff070001f0a1000cf0a70001f0a00005
:100aa000cdff37006120e100cfff32000801be001a
:100ab0000200be00f7ff37006150e100fcff3a0082
:100ac000c9ff3700889fbe008a9fbe00841f780040
:100ad000b0ff07004f00780011003300f0ff2f0037
:100ae000838f6c0006003b00040565000a00a70028
:100af0000800370009f0a6001000200008003700a9
:100b0000820f5400838f5c00030039001000200026
:100b100001003e000000200009f0a7000000ea00ec
:100b20004f05be004f04be000000e00000000600bc
:020000040000fa
:100b30000400fa00008fbe0002002000830624009b
:100b40001e00be00abff070002002000433b240054
:100b5000a8ff07000200200003272400edfe070085
:100b60000002be0000408000114080000001be0075
:100b70000400be00e7fe07000001be0000002000e8
:100b8000a1472400e3fe07000200200003f0230039
:100b900083fe070021ff0700000078000080fa00b4
:100ba000000006000000fa000e28ef001028ef00f9
:100bb0003033230031eb23000040880011408800cf
:100bc000e0d3280001032400d9ff0700604088001b
:100bd000f0f92000700888001221ef008500a900bc
:100be0009500a80013e1a8000a21ef000080fa0098
:100bf000000006000400fa00008fbe0020408000c4
:100c00003140800040408800514088001e01be00f5
:100c100022408800334088004440800055408000d6
:100c200020408000314080000001be000400be0072
:100c30001bff07000000e000090032002040800098
:100c400031408000baff0700604088000e28ef00a6
:100c500020408000314080004040880051408800a2
:100c60000080fa0000000600809fbe00821f78000e
:100c70000000fa00704080000000e800704088002a
:100c80007140800060408000808f500049003a0031
:100c90000e28ef00804080000000e80080408800bf
:100ca00080408000e80f500002003a001028ef005a
:100cb00005003700804080000000e00002003a009c
:100cc000700020008040880080408000c300dd006c
:100cd0002081200000804000100078000040780053
:100ce000614060000080fb004f00dd006216800064
:100cf000f1ff27008100610001007000601688008c
:100d0000804080004300dd008080e80020812000da
:100d100000804000100078000040780061406000d2
:100d20000080fb00610060004e00dd006116800065
:100d300001e0a10001007000601688008040800082
:100d40004300dd00e40040002081200000804000de
:100d50001000780000407800614060000080fb00d7
:100d6000610060004d00dd006116800001d0a1002f
:100d70000100700060168800804080004300dd00a4
:100d8000e600400020812000008040001000780034
:100d900000407800614060000080fb00610060005e
:100da0004c00dd006116800001c0a1000100700050
:100db000601688008500a9000080fa004f017800c5
:100dc0004f00be00004006000000fa000080eb006b
:100dd00060198800c022ef00c822ef003136800081
:100de00000fe2f00008060002001b3003036880034
:100df0000080fa00000006000200fa00000f7800f0
:100e0000210c800080ff2f0000806000200c8800f3
:100e10001e0078006600b900800078002085200060
:100e20000080400010007800100c88001e00780040
:100e30006600b90080007800208520000080400016
:100e400010007800000c880085a1a9008481a90009
:100e50008461a900210c800080ff2f0000806000c9
:100e60006000b300200c88001e0078006600b90006
:100e7000000078008080e80020852000008040008d
:100e800010007800600888001021ef0084e0a900bd
:100e900094e0a90011e1a8000621ef000080fa000b
:100ea000000006000200fa00c7ff07003dff070030
:100eb000cce2a900cd02a800cd22a9000000eb00e1
:100ec000000f780003003700000000000100370029
:100ed0000000000010168000610060000000e000cb
:100ee0000a003a0010168000620060000000e00076
:100ef00006003a0050168000610060000000e0002b
:100f000002003a000000eb00000f78001e0078009d
:100f10000000e000ecff3a00101680006100600065
:100f20000000e0000b00320010002000000f7800ed
:100f3000cce2a800cd02a900cd22a9000000eb0060
:100f4000adff070000002000011a240029ff070060
:100f5000e0ff370010168000620060000000e00033
:100f60000b00320010002000000f7800cce2a90036
:100f7000cd02a800cd22a900100020009eff07008e
:100f8000c09f2a0011f323001aff0700d1ff37008a
:100f900050168000610060000000e000ccff3200cd
:100fa00010002000000f7800cce2a900cd02a900bb
:100fb000cd22a800200020008fff0700d0d82e00ef
:0c0fc00051a323000bff0700c2ff370005
:020000040000fa
:100fcc00520800001200000002000000e880ff0040
:100fdc00ff000000803eff007f000000fd07ff00c7
:100fec000f0000001208000040000000020000008a
:100ffc0001000100000000000000000000010000e2
:10100c0000000000000000000100010000000000d2
:10101c0000000000000100000000000000000000c3
:10102c0001000100000000000000000000010000b1
:10103c0001000000000000000100010000000000a1
:10104c00000000000000000000080000120000007a
:08105c0000000000000000008c
:020000040000fa
:020000040001f9
:0457f8009a680000ab
:020000040000fa
:020000040001f9
:0457fc003f3f00002b
:00000001FF
